{
  "_format": "hh-sol-artifact-1",
  "contractName": "VaultIn",
  "sourceName": "src/gas-model/VaultIn.sol",
  "abi": [
    {
      "inputs": [
        {
          "internalType": "uint256",
          "name": "_maxTxPerPeriod",
          "type": "uint256"
        },
        {
          "internalType": "address",
          "name": "trustedForwarder_",
          "type": "address"
        },
        {
          "internalType": "address",
          "name": "owner_",
          "type": "address"
        }
      ],
      "stateMutability": "nonpayable",
      "type": "constructor"
    },
    {
      "inputs": [],
      "name": "BurnFailed",
      "type": "error"
    },
    {
      "inputs": [],
      "name": "EnforcedPause",
      "type": "error"
    },
    {
      "inputs": [],
      "name": "ExpectedPause",
      "type": "error"
    },
    {
      "inputs": [],
      "name": "InsufficientBalance",
      "type": "error"
    },
    {
      "inputs": [],
      "name": "NotAuthorized",
      "type": "error"
    },
    {
      "inputs": [
        {
          "internalType": "address",
          "name": "owner",
          "type": "address"
        }
      ],
      "name": "OwnableInvalidOwner",
      "type": "error"
    },
    {
      "inputs": [
        {
          "internalType": "address",
          "name": "account",
          "type": "address"
        }
      ],
      "name": "OwnableUnauthorizedAccount",
      "type": "error"
    },
    {
      "inputs": [],
      "name": "TransferFailed",
      "type": "error"
    },
    {
      "inputs": [],
      "name": "TxLimitExceeded",
      "type": "error"
    },
    {
      "anonymous": false,
      "inputs": [
        {
          "indexed": false,
          "internalType": "address",
          "name": "newMember",
          "type": "address"
        }
      ],
      "name": "MemberAddressChanged",
      "type": "event"
    },
    {
      "anonymous": false,
      "inputs": [
        {
          "indexed": true,
          "internalType": "address",
          "name": "previousOwner",
          "type": "address"
        },
        {
          "indexed": true,
          "internalType": "address",
          "name": "newOwner",
          "type": "address"
        }
      ],
      "name": "OwnershipTransferred",
      "type": "event"
    },
    {
      "anonymous": false,
      "inputs": [
        {
          "indexed": false,
          "internalType": "address",
          "name": "account",
          "type": "address"
        }
      ],
      "name": "Paused",
      "type": "event"
    },
    {
      "anonymous": false,
      "inputs": [
        {
          "indexed": true,
          "internalType": "address",
          "name": "token",
          "type": "address"
        },
        {
          "indexed": false,
          "internalType": "uint256",
          "name": "amount",
          "type": "uint256"
        }
      ],
      "name": "TokenBurned",
      "type": "event"
    },
    {
      "anonymous": false,
      "inputs": [
        {
          "indexed": true,
          "internalType": "address",
          "name": "token",
          "type": "address"
        },
        {
          "indexed": true,
          "internalType": "address",
          "name": "sender",
          "type": "address"
        },
        {
          "indexed": false,
          "internalType": "uint256",
          "name": "amount",
          "type": "uint256"
        }
      ],
      "name": "TokenLocked",
      "type": "event"
    },
    {
      "anonymous": false,
      "inputs": [
        {
          "indexed": false,
          "internalType": "address",
          "name": "account",
          "type": "address"
        }
      ],
      "name": "Unpaused",
      "type": "event"
    },
    {
      "inputs": [
        {
          "internalType": "address",
          "name": "token",
          "type": "address"
        },
        {
          "internalType": "uint256",
          "name": "amount",
          "type": "uint256"
        }
      ],
      "name": "burnToken",
      "outputs": [],
      "stateMutability": "nonpayable",
      "type": "function"
    },
    {
      "inputs": [
        {
          "internalType": "address",
          "name": "token",
          "type": "address"
        }
      ],
      "name": "getTokenBalance",
      "outputs": [
        {
          "internalType": "uint256",
          "name": "",
          "type": "uint256"
        }
      ],
      "stateMutability": "view",
      "type": "function"
    },
    {
      "inputs": [
        {
          "internalType": "address",
          "name": "token",
          "type": "address"
        },
        {
          "internalType": "uint256",
          "name": "amount",
          "type": "uint256"
        }
      ],
      "name": "lockToken",
      "outputs": [],
      "stateMutability": "nonpayable",
      "type": "function"
    },
    {
      "inputs": [],
      "name": "maxTxPerPeriod",
      "outputs": [
        {
          "internalType": "uint256",
          "name": "",
          "type": "uint256"
        }
      ],
      "stateMutability": "view",
      "type": "function"
    },
    {
      "inputs": [],
      "name": "memberAddress",
      "outputs": [
        {
          "internalType": "address",
          "name": "",
          "type": "address"
        }
      ],
      "stateMutability": "view",
      "type": "function"
    },
    {
      "inputs": [],
      "name": "owner",
      "outputs": [
        {
          "internalType": "address",
          "name": "",
          "type": "address"
        }
      ],
      "stateMutability": "view",
      "type": "function"
    },
    {
      "inputs": [],
      "name": "pause",
      "outputs": [],
      "stateMutability": "nonpayable",
      "type": "function"
    },
    {
      "inputs": [],
      "name": "paused",
      "outputs": [
        {
          "internalType": "bool",
          "name": "",
          "type": "bool"
        }
      ],
      "stateMutability": "view",
      "type": "function"
    },
    {
      "inputs": [],
      "name": "renounceOwnership",
      "outputs": [],
      "stateMutability": "nonpayable",
      "type": "function"
    },
    {
      "inputs": [
        {
          "internalType": "uint256",
          "name": "_newLimit",
          "type": "uint256"
        }
      ],
      "name": "setMaxTxPerPeriod",
      "outputs": [],
      "stateMutability": "nonpayable",
      "type": "function"
    },
    {
      "inputs": [
        {
          "internalType": "address",
          "name": "_member",
          "type": "address"
        }
      ],
      "name": "setMemberAddress",
      "outputs": [],
      "stateMutability": "nonpayable",
      "type": "function"
    },
    {
      "inputs": [
        {
          "internalType": "address",
          "name": "newOwner",
          "type": "address"
        }
      ],
      "name": "transferOwnership",
      "outputs": [],
      "stateMutability": "nonpayable",
      "type": "function"
    },
    {
      "inputs": [
        {
          "internalType": "uint256",
          "name": "",
          "type": "uint256"
        }
      ],
      "name": "txCountByPeriod",
      "outputs": [
        {
          "internalType": "uint256",
          "name": "",
          "type": "uint256"
        }
      ],
      "stateMutability": "view",
      "type": "function"
    },
    {
      "inputs": [],
      "name": "unpause",
      "outputs": [],
      "stateMutability": "nonpayable",
      "type": "function"
    }
  ],
  "bytecode": "0x608060405234801561001057600080fd5b5060405161158738038061158783398181016040528101906100329190610266565b818382600073ffffffffffffffffffffffffffffffffffffffff168173ffffffffffffffffffffffffffffffffffffffff16036100a75760006040517f1e4fbdf700000000000000000000000000000000000000000000000000000000815260040161009e91906102c8565b60405180910390fd5b6100b68161010960201b60201c565b50806001819055505080600360006101000a81548173ffffffffffffffffffffffffffffffffffffffff021916908373ffffffffffffffffffffffffffffffffffffffff160217905550505050506102e3565b60008060009054906101000a900473ffffffffffffffffffffffffffffffffffffffff169050816000806101000a81548173ffffffffffffffffffffffffffffffffffffffff021916908373ffffffffffffffffffffffffffffffffffffffff1602179055508173ffffffffffffffffffffffffffffffffffffffff168173ffffffffffffffffffffffffffffffffffffffff167f8be0079c531659141344cd1fd0a4f28419497f9722a3daafe3b4186f6b6457e060405160405180910390a35050565b600080fd5b6000819050919050565b6101e5816101d2565b81146101f057600080fd5b50565b600081519050610202816101dc565b92915050565b600073ffffffffffffffffffffffffffffffffffffffff82169050919050565b600061023382610208565b9050919050565b61024381610228565b811461024e57600080fd5b50565b6000815190506102608161023a565b92915050565b60008060006060848603121561027f5761027e6101cd565b5b600061028d868287016101f3565b935050602061029e86828701610251565b92505060406102af86828701610251565b9150509250925092565b6102c281610228565b82525050565b60006020820190506102dd60008301846102b9565b92915050565b611295806102f26000396000f3fe608060405234801561001057600080fd5b50600436106100ea5760003560e01c8063715018a61161008c578063ae347a0711610066578063ae347a07146101ff578063d1df306c1461021b578063e2dad5c614610237578063f2fde38b14610255576100ea565b8063715018a6146101cd5780638456cb59146101d75780638da5cb5b146101e1576100ea565b806337e9d6ac116100c857806337e9d6ac146101455780633aecd0e3146101755780633f4ba83a146101a55780635c975abb146101af576100ea565b806301f1cd3c146100ef578063137238011461010b57806317be3fa514610129575b600080fd5b61010960048036038101906101049190610e69565b610271565b005b6101136102f4565b6040516101209190610eaf565b60405180910390f35b610143600480360381019061013e9190610ef6565b6102fa565b005b61015f600480360381019061015a9190610f36565b610548565b60405161016c9190610eaf565b60405180910390f35b61018f600480360381019061018a9190610e69565b610560565b60405161019c9190610eaf565b60405180910390f35b6101ad6105e3565b005b6101b76105f5565b6040516101c49190610f7e565b60405180910390f35b6101d561060b565b005b6101df61061f565b005b6101e9610631565b6040516101f69190610fa8565b60405180910390f35b61021960048036038101906102149190610f36565b61065a565b005b61023560048036038101906102309190610ef6565b61066c565b005b61023f61068a565b60405161024c9190610fa8565b60405180910390f35b61026f600480360381019061026a9190610e69565b6106b0565b005b610279610736565b80600460006101000a81548173ffffffffffffffffffffffffffffffffffffffff021916908373ffffffffffffffffffffffffffffffffffffffff1602179055507ff87a16e557667e0df362d0770072e4f59961db50d32d06369d0ccc92db953917816040516102e99190610fa8565b60405180910390a150565b60015481565b6103026107bd565b600460009054906101000a900473ffffffffffffffffffffffffffffffffffffffff1673ffffffffffffffffffffffffffffffffffffffff166103436107fe565b73ffffffffffffffffffffffffffffffffffffffff1614610390576040517fea8e4eb500000000000000000000000000000000000000000000000000000000815260040160405180910390fd5b600062278d00426103a19190611021565b90506001546002600083815260200190815260200160002054106103f1576040517f6c1cb1f600000000000000000000000000000000000000000000000000000000815260040160405180910390fd5b8273ffffffffffffffffffffffffffffffffffffffff166323b872dd6104156107fe565b30856040518463ffffffff1660e01b815260040161043593929190611052565b6020604051808303816000875af1158015610454573d6000803e3d6000fd5b505050506040513d601f19601f8201168201806040525081019061047891906110b5565b6104ae576040517f90b8ec1800000000000000000000000000000000000000000000000000000000815260040160405180910390fd5b6104b66107fe565b73ffffffffffffffffffffffffffffffffffffffff168373ffffffffffffffffffffffffffffffffffffffff167f991b8e8a2e2b8ff515f7045174eeb52eb4868e69c5bb4259da6146a93c77574d846040516105129190610eaf565b60405180910390a360026000828152602001908152602001600020600081548092919061053e906110e2565b9190505550505050565b60026020528060005260406000206000915090505481565b60008173ffffffffffffffffffffffffffffffffffffffff166370a08231306040518263ffffffff1660e01b815260040161059b9190610fa8565b602060405180830381865afa1580156105b8573d6000803e3d6000fd5b505050506040513d601f19601f820116820180604052508101906105dc919061113f565b9050919050565b6105eb610736565b6105f361080d565b565b60008060149054906101000a900460ff16905090565b610613610736565b61061d600061086f565b565b610627610736565b61062f610933565b565b60008060009054906101000a900473ffffffffffffffffffffffffffffffffffffffff16905090565b610662610736565b8060018190555050565b610674610736565b61067c6107bd565b6106868282610996565b5050565b600460009054906101000a900473ffffffffffffffffffffffffffffffffffffffff1681565b6106b8610736565b600073ffffffffffffffffffffffffffffffffffffffff168173ffffffffffffffffffffffffffffffffffffffff160361072a5760006040517f1e4fbdf70000000000000000000000000000000000000000000000000000000081526004016107219190610fa8565b60405180910390fd5b6107338161086f565b50565b61073e6107fe565b73ffffffffffffffffffffffffffffffffffffffff1661075c610631565b73ffffffffffffffffffffffffffffffffffffffff16146107bb5761077f6107fe565b6040517f118cdaa70000000000000000000000000000000000000000000000000000000081526004016107b29190610fa8565b60405180910390fd5b565b6107c56105f5565b156107fc576040517fd93c066500000000000000000000000000000000000000000000000000000000815260040160405180910390fd5b565b6000610808610b35565b905090565b610815610dc6565b60008060146101000a81548160ff0219169083151502179055507f5db9ee0a495bf2e6ff9c91a7834c1ba4fdd244a5e8aa4e537bd38aeae4b073aa6108586107fe565b6040516108659190610fa8565b60405180910390a1565b60008060009054906101000a900473ffffffffffffffffffffffffffffffffffffffff169050816000806101000a81548173ffffffffffffffffffffffffffffffffffffffff021916908373ffffffffffffffffffffffffffffffffffffffff1602179055508173ffffffffffffffffffffffffffffffffffffffff168173ffffffffffffffffffffffffffffffffffffffff167f8be0079c531659141344cd1fd0a4f28419497f9722a3daafe3b4186f6b6457e060405160405180910390a35050565b61093b6107bd565b6001600060146101000a81548160ff0219169083151502179055507f62e78cea01bee320cd4e420270b5ea74000d11b0c9f74754ebdbfc544b05a25861097f6107fe565b60405161098c9190610fa8565b60405180910390a1565b808273ffffffffffffffffffffffffffffffffffffffff166370a08231306040518263ffffffff1660e01b81526004016109d09190610fa8565b602060405180830381865afa1580156109ed573d6000803e3d6000fd5b505050506040513d601f19601f82011682018060405250810190610a11919061113f565b1015610a49576040517ff4d678b800000000000000000000000000000000000000000000000000000000815260040160405180910390fd5b8173ffffffffffffffffffffffffffffffffffffffff166342966c68826040518263ffffffff1660e01b8152600401610a829190610eaf565b600060405180830381600087803b158015610a9c57600080fd5b505af1925050508015610aad575060015b610ae3576040517f6f16aafc00000000000000000000000000000000000000000000000000000000815260040160405180910390fd5b8173ffffffffffffffffffffffffffffffffffffffff167f1af5163f80e79b5e554f61e1d052084d3a3fe1166e42a265798c4e2ddce8ffa282604051610b299190610eaf565b60405180910390a25050565b60006060600360009054906101000a900473ffffffffffffffffffffffffffffffffffffffff1673ffffffffffffffffffffffffffffffffffffffff166040516024016040516020818303038152906040527f7bdf2ec7000000000000000000000000000000000000000000000000000000007bffffffffffffffffffffffffffffffffffffffffffffffffffffffff19166020820180517bffffffffffffffffffffffffffffffffffffffffffffffffffffffff8381831617835250505050604051610c0291906111dd565b600060405180830381855afa9150503d8060008114610c3d576040519150601f19603f3d011682016040523d82523d6000602084013e610c42565b606091505b5090508091505080806020019051810190610c5d9190611232565b73ffffffffffffffffffffffffffffffffffffffff163373ffffffffffffffffffffffffffffffffffffffff1603610dbe576060600360009054906101000a900473ffffffffffffffffffffffffffffffffffffffff1673ffffffffffffffffffffffffffffffffffffffff166040516024016040516020818303038152906040527f7a6ce2e1000000000000000000000000000000000000000000000000000000007bffffffffffffffffffffffffffffffffffffffffffffffffffffffff19166020820180517bffffffffffffffffffffffffffffffffffffffffffffffffffffffff8381831617835250505050604051610d5a91906111dd565b600060405180830381855afa9150503d8060008114610d95576040519150601f19603f3d011682016040523d82523d6000602084013e610d9a565b606091505b5090508091505080806020019051810190610db59190611232565b92505050610dc3565b339150505b90565b610dce6105f5565b610e04576040517f8dfc202b00000000000000000000000000000000000000000000000000000000815260040160405180910390fd5b565b600080fd5b600073ffffffffffffffffffffffffffffffffffffffff82169050919050565b6000610e3682610e0b565b9050919050565b610e4681610e2b565b8114610e5157600080fd5b50565b600081359050610e6381610e3d565b92915050565b600060208284031215610e7f57610e7e610e06565b5b6000610e8d84828501610e54565b91505092915050565b6000819050919050565b610ea981610e96565b82525050565b6000602082019050610ec46000830184610ea0565b92915050565b610ed381610e96565b8114610ede57600080fd5b50565b600081359050610ef081610eca565b92915050565b60008060408385031215610f0d57610f0c610e06565b5b6000610f1b85828601610e54565b9250506020610f2c85828601610ee1565b9150509250929050565b600060208284031215610f4c57610f4b610e06565b5b6000610f5a84828501610ee1565b91505092915050565b60008115159050919050565b610f7881610f63565b82525050565b6000602082019050610f936000830184610f6f565b92915050565b610fa281610e2b565b82525050565b6000602082019050610fbd6000830184610f99565b92915050565b7f4e487b7100000000000000000000000000000000000000000000000000000000600052601260045260246000fd5b7f4e487b7100000000000000000000000000000000000000000000000000000000600052601160045260246000fd5b600061102c82610e96565b915061103783610e96565b92508261104757611046610fc3565b5b828204905092915050565b60006060820190506110676000830186610f99565b6110746020830185610f99565b6110816040830184610ea0565b949350505050565b61109281610f63565b811461109d57600080fd5b50565b6000815190506110af81611089565b92915050565b6000602082840312156110cb576110ca610e06565b5b60006110d9848285016110a0565b91505092915050565b60006110ed82610e96565b91507fffffffffffffffffffffffffffffffffffffffffffffffffffffffffffffffff820361111f5761111e610ff2565b5b600182019050919050565b60008151905061113981610eca565b92915050565b60006020828403121561115557611154610e06565b5b60006111638482850161112a565b91505092915050565b600081519050919050565b600081905092915050565b60005b838110156111a0578082015181840152602081019050611185565b60008484015250505050565b60006111b78261116c565b6111c18185611177565b93506111d1818560208601611182565b80840191505092915050565b60006111e982846111ac565b915081905092915050565b60006111ff82610e0b565b9050919050565b61120f816111f4565b811461121a57600080fd5b50565b60008151905061122c81611206565b92915050565b60006020828403121561124857611247610e06565b5b60006112568482850161121d565b9150509291505056fea2646970667358221220511e26c61688f1ae4c904430113818f97be808c7f17da6685b5090988ad8ba1164736f6c634300081c0033",
  "linkReferences": {},
  "deployedLinkReferences": {}
}